{
  "address": "0x759b88f4131d4F3545fd52186636f7B5147C4ac8",
  "abi": [
    {
      "anonymous": false,
      "inputs": [
        {
          "indexed": true,
          "internalType": "address",
          "name": "owner",
          "type": "address"
        },
        {
          "indexed": true,
          "internalType": "address",
          "name": "spender",
          "type": "address"
        },
        {
          "indexed": false,
          "internalType": "uint256",
          "name": "value",
          "type": "uint256"
        }
      ],
      "name": "Approval",
      "type": "event"
    },
    {
      "anonymous": false,
      "inputs": [
        {
          "indexed": false,
          "internalType": "uint8",
          "name": "version",
          "type": "uint8"
        }
      ],
      "name": "Initialized",
      "type": "event"
    },
    {
      "anonymous": false,
      "inputs": [
        {
          "indexed": false,
          "internalType": "address",
          "name": "account",
          "type": "address"
        }
      ],
      "name": "Paused",
      "type": "event"
    },
    {
      "anonymous": false,
      "inputs": [
        {
          "indexed": true,
          "internalType": "address",
          "name": "from",
          "type": "address"
        },
        {
          "indexed": true,
          "internalType": "address",
          "name": "to",
          "type": "address"
        },
        {
          "indexed": false,
          "internalType": "uint256",
          "name": "value",
          "type": "uint256"
        }
      ],
      "name": "Transfer",
      "type": "event"
    },
    {
      "anonymous": false,
      "inputs": [
        {
          "indexed": false,
          "internalType": "address",
          "name": "account",
          "type": "address"
        }
      ],
      "name": "Unpaused",
      "type": "event"
    },
    {
      "inputs": [],
      "name": "BLACKLISTED_ROLE",
      "outputs": [
        {
          "internalType": "bytes32",
          "name": "",
          "type": "bytes32"
        }
      ],
      "stateMutability": "view",
      "type": "function"
    },
    {
      "inputs": [],
      "name": "BLACKLIST_OPERATOR_ROLE",
      "outputs": [
        {
          "internalType": "bytes32",
          "name": "",
          "type": "bytes32"
        }
      ],
      "stateMutability": "view",
      "type": "function"
    },
    {
      "inputs": [],
      "name": "DEFAULT_ADMIN_ROLE",
      "outputs": [
        {
          "internalType": "bytes32",
          "name": "",
          "type": "bytes32"
        }
      ],
      "stateMutability": "view",
      "type": "function"
    },
    {
      "inputs": [],
      "name": "DEPOSIT_VAULT_ADMIN_ROLE",
      "outputs": [
        {
          "internalType": "bytes32",
          "name": "",
          "type": "bytes32"
        }
      ],
      "stateMutability": "view",
      "type": "function"
    },
    {
      "inputs": [],
      "name": "DESCRIPTION_URL_METADATA_KEY",
      "outputs": [
        {
          "internalType": "bytes32",
          "name": "",
          "type": "bytes32"
        }
      ],
      "stateMutability": "view",
      "type": "function"
    },
    {
      "inputs": [],
      "name": "GREENLISTED_ROLE",
      "outputs": [
        {
          "internalType": "bytes32",
          "name": "",
          "type": "bytes32"
        }
      ],
      "stateMutability": "view",
      "type": "function"
    },
    {
      "inputs": [],
      "name": "GREENLIST_OPERATOR_ROLE",
      "outputs": [
        {
          "internalType": "bytes32",
          "name": "",
          "type": "bytes32"
        }
      ],
      "stateMutability": "view",
      "type": "function"
    },
    {
      "inputs": [],
      "name": "REDEMPTION_VAULT_ADMIN_ROLE",
      "outputs": [
        {
          "internalType": "bytes32",
          "name": "",
          "type": "bytes32"
        }
      ],
      "stateMutability": "view",
      "type": "function"
    },
    {
      "inputs": [],
      "name": "M_TBILL_BURN_OPERATOR_ROLE",
      "outputs": [
        {
          "internalType": "bytes32",
          "name": "",
          "type": "bytes32"
        }
      ],
      "stateMutability": "view",
      "type": "function"
    },
    {
      "inputs": [],
      "name": "M_TBILL_MINT_OPERATOR_ROLE",
      "outputs": [
        {
          "internalType": "bytes32",
          "name": "",
          "type": "bytes32"
        }
      ],
      "stateMutability": "view",
      "type": "function"
    },
    {
      "inputs": [],
      "name": "M_TBILL_PAUSE_OPERATOR_ROLE",
      "outputs": [
        {
          "internalType": "bytes32",
          "name": "",
          "type": "bytes32"
        }
      ],
      "stateMutability": "view",
      "type": "function"
    },
    {
      "inputs": [],
      "name": "TERMS_URL_METADATA_KEY",
      "outputs": [
        {
          "internalType": "bytes32",
          "name": "",
          "type": "bytes32"
        }
      ],
      "stateMutability": "view",
      "type": "function"
    },
    {
      "inputs": [],
      "name": "accessControl",
      "outputs": [
        {
          "internalType": "contract MidasAccessControl",
          "name": "",
          "type": "address"
        }
      ],
      "stateMutability": "view",
      "type": "function"
    },
    {
      "inputs": [
        {
          "internalType": "address",
          "name": "account",
          "type": "address"
        }
      ],
      "name": "addToBlackList",
      "outputs": [],
      "stateMutability": "nonpayable",
      "type": "function"
    },
    {
      "inputs": [
        {
          "internalType": "address",
          "name": "owner",
          "type": "address"
        },
        {
          "internalType": "address",
          "name": "spender",
          "type": "address"
        }
      ],
      "name": "allowance",
      "outputs": [
        {
          "internalType": "uint256",
          "name": "",
          "type": "uint256"
        }
      ],
      "stateMutability": "view",
      "type": "function"
    },
    {
      "inputs": [
        {
          "internalType": "address",
          "name": "spender",
          "type": "address"
        },
        {
          "internalType": "uint256",
          "name": "amount",
          "type": "uint256"
        }
      ],
      "name": "approve",
      "outputs": [
        {
          "internalType": "bool",
          "name": "",
          "type": "bool"
        }
      ],
      "stateMutability": "nonpayable",
      "type": "function"
    },
    {
      "inputs": [
        {
          "internalType": "address",
          "name": "account",
          "type": "address"
        }
      ],
      "name": "balanceOf",
      "outputs": [
        {
          "internalType": "uint256",
          "name": "",
          "type": "uint256"
        }
      ],
      "stateMutability": "view",
      "type": "function"
    },
    {
      "inputs": [
        {
          "internalType": "address",
          "name": "from",
          "type": "address"
        },
        {
          "internalType": "uint256",
          "name": "amount",
          "type": "uint256"
        }
      ],
      "name": "burn",
      "outputs": [],
      "stateMutability": "nonpayable",
      "type": "function"
    },
    {
      "inputs": [],
      "name": "decimals",
      "outputs": [
        {
          "internalType": "uint8",
          "name": "",
          "type": "uint8"
        }
      ],
      "stateMutability": "view",
      "type": "function"
    },
    {
      "inputs": [
        {
          "internalType": "address",
          "name": "spender",
          "type": "address"
        },
        {
          "internalType": "uint256",
          "name": "subtractedValue",
          "type": "uint256"
        }
      ],
      "name": "decreaseAllowance",
      "outputs": [
        {
          "internalType": "bool",
          "name": "",
          "type": "bool"
        }
      ],
      "stateMutability": "nonpayable",
      "type": "function"
    },
    {
      "inputs": [
        {
          "internalType": "address",
          "name": "spender",
          "type": "address"
        },
        {
          "internalType": "uint256",
          "name": "addedValue",
          "type": "uint256"
        }
      ],
      "name": "increaseAllowance",
      "outputs": [
        {
          "internalType": "bool",
          "name": "",
          "type": "bool"
        }
      ],
      "stateMutability": "nonpayable",
      "type": "function"
    },
    {
      "inputs": [
        {
          "internalType": "address",
          "name": "_accessControl",
          "type": "address"
        }
      ],
      "name": "initialize",
      "outputs": [],
      "stateMutability": "nonpayable",
      "type": "function"
    },
    {
      "inputs": [
        {
          "internalType": "bytes32",
          "name": "",
          "type": "bytes32"
        }
      ],
      "name": "metadata",
      "outputs": [
        {
          "internalType": "bytes",
          "name": "",
          "type": "bytes"
        }
      ],
      "stateMutability": "view",
      "type": "function"
    },
    {
      "inputs": [
        {
          "internalType": "address",
          "name": "to",
          "type": "address"
        },
        {
          "internalType": "uint256",
          "name": "amount",
          "type": "uint256"
        }
      ],
      "name": "mint",
      "outputs": [],
      "stateMutability": "nonpayable",
      "type": "function"
    },
    {
      "inputs": [],
      "name": "name",
      "outputs": [
        {
          "internalType": "string",
          "name": "",
          "type": "string"
        }
      ],
      "stateMutability": "view",
      "type": "function"
    },
    {
      "inputs": [],
      "name": "pause",
      "outputs": [],
      "stateMutability": "nonpayable",
      "type": "function"
    },
    {
      "inputs": [],
      "name": "paused",
      "outputs": [
        {
          "internalType": "bool",
          "name": "",
          "type": "bool"
        }
      ],
      "stateMutability": "view",
      "type": "function"
    },
    {
      "inputs": [
        {
          "internalType": "address",
          "name": "account",
          "type": "address"
        }
      ],
      "name": "removeFromBlackList",
      "outputs": [],
      "stateMutability": "nonpayable",
      "type": "function"
    },
    {
      "inputs": [
        {
          "internalType": "bytes32",
          "name": "key",
          "type": "bytes32"
        },
        {
          "internalType": "bytes",
          "name": "data",
          "type": "bytes"
        }
      ],
      "name": "setMetadata",
      "outputs": [],
      "stateMutability": "nonpayable",
      "type": "function"
    },
    {
      "inputs": [],
      "name": "symbol",
      "outputs": [
        {
          "internalType": "string",
          "name": "",
          "type": "string"
        }
      ],
      "stateMutability": "view",
      "type": "function"
    },
    {
      "inputs": [],
      "name": "totalSupply",
      "outputs": [
        {
          "internalType": "uint256",
          "name": "",
          "type": "uint256"
        }
      ],
      "stateMutability": "view",
      "type": "function"
    },
    {
      "inputs": [
        {
          "internalType": "address",
          "name": "to",
          "type": "address"
        },
        {
          "internalType": "uint256",
          "name": "amount",
          "type": "uint256"
        }
      ],
      "name": "transfer",
      "outputs": [
        {
          "internalType": "bool",
          "name": "",
          "type": "bool"
        }
      ],
      "stateMutability": "nonpayable",
      "type": "function"
    },
    {
      "inputs": [
        {
          "internalType": "address",
          "name": "from",
          "type": "address"
        },
        {
          "internalType": "address",
          "name": "to",
          "type": "address"
        },
        {
          "internalType": "uint256",
          "name": "amount",
          "type": "uint256"
        }
      ],
      "name": "transferFrom",
      "outputs": [
        {
          "internalType": "bool",
          "name": "",
          "type": "bool"
        }
      ],
      "stateMutability": "nonpayable",
      "type": "function"
    },
    {
      "inputs": [],
      "name": "unpause",
      "outputs": [],
      "stateMutability": "nonpayable",
      "type": "function"
    }
  ],
  "transactionHash": "0x4ae87a17a2f7641964d5bf57197dde6487a04c9fe12f977558a8732b862d49ce",
  "args": [],
  "numDeployments": 1,
  "solcInputHash": "5de4e3b60401f4e2234311a8c17bef84",
  "bytecode": "0x608060405234801561001057600080fd5b506118b7806100206000396000f3fe608060405234801561001057600080fd5b50600436106102065760003560e01c806370a082311161011a5780639dc29fac116100ad578063affe716f1161007c578063affe716f146104d6578063c4d66de8146104fd578063dd62ed3e14610510578063e2c4d73714610523578063e7a241a01461054a57600080fd5b80639dc29fac14610495578063a217fddf146104a8578063a457c2d7146104b0578063a9059cbb146104c357600080fd5b806381d7ca93116100e957806381d7ca93146104375780638456cb591461045e57806395d89b41146104665780639824bff21461046e57600080fd5b806370a08231146103c15780637122ba06146103ea578063714aa3a8146103fd5780637b894d021461041057600080fd5b8063395093511161019d578063417c73a71161016c578063417c73a7146103545780634a49ac4c146103675780635300b4ba1461037a5780635c975abb146103a157806362b199c5146103ac57600080fd5b806339509351146102fd5780633f4ba83a14610310578063409853231461031a57806340c10f191461034157600080fd5b806318160ddd116101d957806318160ddd146102ac5780631ed41163146102b457806323b872dd146102db578063313ce567146102ee57600080fd5b806306fdde031461020b578063095ea7b31461022957806313007d551461024c57806315b9598a14610277575b600080fd5b610213610571565b60405161022091906115bf565b60405180910390f35b61023c6102373660046115f5565b610603565b6040519015158152602001610220565b60c95461025f906001600160a01b031681565b6040516001600160a01b039091168152602001610220565b61029e7f77c5b782690f31cd39b1abf2448215259a688a75920040c399d96a676bd1999d81565b604051908152602001610220565b60355461029e565b61029e7fd2576bd6a4c5558421de15cb8ecdf4eb3282aac06b94d4f004e8cd0d00f3ebd881565b61023c6102e936600461161f565b61061b565b60405160128152602001610220565b61023c61030b3660046115f5565b61063f565b610318610661565b005b61029e7f2728bd32a7e1e24afac41a073e9c92dbb65527c9ec3baa2a8d5ee1d06c0fa77981565b61031861034f3660046115f5565b610699565b61031861036236600461165b565b6106d5565b61031861037536600461165b565b61077a565b61029e7f2fdc6683bc8d03effec5b41d3834f28bd219e06ca0a6a26fc737e44b1c7889ff81565b60655460ff1661023c565b61029e60008051602061186283398151915281565b61029e6103cf36600461165b565b6001600160a01b031660009081526033602052604090205490565b6102136103f8366004611676565b6107ec565b61031861040b3660046116a5565b610886565b61029e7f276ee648e2b2d254c5ef3ef6173112f657ee804d75c04842b4e7fff54cabcb0081565b61029e7f7a19479a9a79eaf18be7df88d764f4749ee2723db64d43e6d8faa52bf572a26e81565b6103186108b9565b6102136108ed565b61029e7f42395a6852a13a2665f45f02c52129cd01fdb572f6afd9c823c1a0482f4f5b2e81565b6103186104a33660046115f5565b6108fc565b61029e600081565b61023c6104be3660046115f5565b610932565b61023c6104d13660046115f5565b6109b2565b61029e7fb9a563e995f62b88f060814be83e4a7006d36253cb8187505da49138cbb14dfd81565b61031861050b36600461165b565b6109c0565b61029e61051e366004611760565b610b16565b61029e7f57df534b215589c7ade8c8abe0978debf2ea95cf1d442550f94eec78a69d238e81565b61029e7fc5d220ffdcdb5a74766e4e42ba487e101f2060580eadba449f864944442deb2c81565b60606036805461058090611793565b80601f01602080910402602001604051908101604052809291908181526020018280546105ac90611793565b80156105f95780601f106105ce576101008083540402835291602001916105f9565b820191906000526020600020905b8154815290600101906020018083116105dc57829003601f168201915b5050505050905090565b600033610611818585610b41565b5060019392505050565b600033610629858285610c66565b610634858585610cda565b506001949350505050565b6000336106118185856106528383610b16565b61065c91906117ce565b610b41565b7f42395a6852a13a2665f45f02c52129cd01fdb572f6afd9c823c1a0482f4f5b2e3361068d8282610e90565b610695610f53565b5050565b7f7a19479a9a79eaf18be7df88d764f4749ee2723db64d43e6d8faa52bf572a26e336106c58282610e90565b6106cf8484610fa5565b50505050565b7f2fdc6683bc8d03effec5b41d3834f28bd219e06ca0a6a26fc737e44b1c7889ff336107018282610e90565b60c954604051632f2ff15d60e01b815260008051602061186283398151915260048201526001600160a01b03858116602483015290911690632f2ff15d906044015b600060405180830381600087803b15801561075d57600080fd5b505af1158015610771573d6000803e3d6000fd5b50505050505050565b7f2fdc6683bc8d03effec5b41d3834f28bd219e06ca0a6a26fc737e44b1c7889ff336107a68282610e90565b60c95460405163d547741f60e01b815260008051602061186283398151915260048201526001600160a01b0385811660248301529091169063d547741f90604401610743565b60ca602052600090815260409020805461080590611793565b80601f016020809104026020016040519081016040528092919081815260200182805461083190611793565b801561087e5780601f106108535761010080835404028352916020019161087e565b820191906000526020600020905b81548152906001019060200180831161086157829003601f168201915b505050505081565b6000336108938282610e90565b600084815260ca6020908152604090912084516108b2928601906114d9565b5050505050565b7f42395a6852a13a2665f45f02c52129cd01fdb572f6afd9c823c1a0482f4f5b2e336108e58282610e90565b610695611072565b60606037805461058090611793565b7f276ee648e2b2d254c5ef3ef6173112f657ee804d75c04842b4e7fff54cabcb00336109288282610e90565b6106cf84846110af565b600033816109408286610b16565b9050838110156109a55760405162461bcd60e51b815260206004820152602560248201527f45524332303a2064656372656173656420616c6c6f77616e63652062656c6f77604482015264207a65726f60d81b60648201526084015b60405180910390fd5b6106348286868403610b41565b600033610611818585610cda565b600054610100900460ff16158080156109e05750600054600160ff909116105b806109fa5750303b1580156109fa575060005460ff166001145b610a5d5760405162461bcd60e51b815260206004820152602e60248201527f496e697469616c697a61626c653a20636f6e747261637420697320616c72656160448201526d191e481a5b9a5d1a585b1a5e995960921b606482015260840161099c565b6000805460ff191660011790558015610a80576000805461ff0019166101001790555b610a89826111ec565b610acd604051806040016040528060058152602001641cdd1554d160da1b815250604051806040016040528060058152602001641cdd1554d160da1b81525061121f565b8015610695576000805461ff0019169055604051600181527f7f26b83ff96e1f2b6a682f133852f6798a09c465da95921460cefb38474024989060200160405180910390a15050565b6001600160a01b03918216600090815260346020908152604080832093909416825291909152205490565b6001600160a01b038316610ba35760405162461bcd60e51b8152602060048201526024808201527f45524332303a20617070726f76652066726f6d20746865207a65726f206164646044820152637265737360e01b606482015260840161099c565b6001600160a01b038216610c045760405162461bcd60e51b815260206004820152602260248201527f45524332303a20617070726f766520746f20746865207a65726f206164647265604482015261737360f01b606482015260840161099c565b6001600160a01b0383811660008181526034602090815260408083209487168084529482529182902085905590518481527f8c5be1e5ebec7d5bd14f71427d1e84f3dd0314c0f7b2291e5b200ac8c7c3b92591015b60405180910390a3505050565b6000610c728484610b16565b905060001981146106cf5781811015610ccd5760405162461bcd60e51b815260206004820152601d60248201527f45524332303a20696e73756666696369656e7420616c6c6f77616e6365000000604482015260640161099c565b6106cf8484848403610b41565b6001600160a01b038316610d3e5760405162461bcd60e51b815260206004820152602560248201527f45524332303a207472616e736665722066726f6d20746865207a65726f206164604482015264647265737360d81b606482015260840161099c565b6001600160a01b038216610da05760405162461bcd60e51b815260206004820152602360248201527f45524332303a207472616e7366657220746f20746865207a65726f206164647260448201526265737360e81b606482015260840161099c565b610dab838383611250565b6001600160a01b03831660009081526033602052604090205481811015610e235760405162461bcd60e51b815260206004820152602660248201527f45524332303a207472616e7366657220616d6f756e7420657863656564732062604482015265616c616e636560d01b606482015260840161099c565b6001600160a01b0380851660008181526033602052604080822086860390559286168082529083902080548601905591517fddf252ad1be2c89b69c2b068fc378daa952ba7f163c4a11628f55a4df523b3ef90610e839086815260200190565b60405180910390a36106cf565b60c954604051632474521560e21b8152600481018490526001600160a01b038381166024830152909116906391d148549060440160206040518083038186803b158015610edc57600080fd5b505afa158015610ef0573d6000803e3d6000fd5b505050506040513d601f19601f82011682018060405250810190610f1491906117f4565b6106955760405162461bcd60e51b815260206004820152601060248201526f574d41433a206861736e7420726f6c6560801b604482015260640161099c565b610f5b61126f565b6065805460ff191690557f5db9ee0a495bf2e6ff9c91a7834c1ba4fdd244a5e8aa4e537bd38aeae4b073aa335b6040516001600160a01b03909116815260200160405180910390a1565b6001600160a01b038216610ffb5760405162461bcd60e51b815260206004820152601f60248201527f45524332303a206d696e7420746f20746865207a65726f206164647265737300604482015260640161099c565b61100760008383611250565b806035600082825461101991906117ce565b90915550506001600160a01b0382166000818152603360209081526040808320805486019055518481527fddf252ad1be2c89b69c2b068fc378daa952ba7f163c4a11628f55a4df523b3ef910160405180910390a35050565b61107a6112ba565b6065805460ff191660011790557f62e78cea01bee320cd4e420270b5ea74000d11b0c9f74754ebdbfc544b05a258610f883390565b6001600160a01b03821661110f5760405162461bcd60e51b815260206004820152602160248201527f45524332303a206275726e2066726f6d20746865207a65726f206164647265736044820152607360f81b606482015260840161099c565b61111b82600083611250565b6001600160a01b0382166000908152603360205260409020548181101561118f5760405162461bcd60e51b815260206004820152602260248201527f45524332303a206275726e20616d6f756e7420657863656564732062616c616e604482015261636560f01b606482015260840161099c565b6001600160a01b03831660008181526033602090815260408083208686039055603580548790039055518581529192917fddf252ad1be2c89b69c2b068fc378daa952ba7f163c4a11628f55a4df523b3ef9101610c59565b505050565b600054610100900460ff166112135760405162461bcd60e51b815260040161099c90611816565b61121c81611300565b50565b600054610100900460ff166112465760405162461bcd60e51b815260040161099c90611816565b6106958282611349565b8261125a81611397565b8261126481611397565b6108b28585856113b1565b60655460ff166112b85760405162461bcd60e51b815260206004820152601460248201527314185d5cd8589b194e881b9bdd081c185d5cd95960621b604482015260640161099c565b565b60655460ff16156112b85760405162461bcd60e51b815260206004820152601060248201526f14185d5cd8589b194e881c185d5cd95960821b604482015260640161099c565b600054610100900460ff166113275760405162461bcd60e51b815260040161099c90611816565b60c980546001600160a01b0319166001600160a01b0392909216919091179055565b600054610100900460ff166113705760405162461bcd60e51b815260040161099c90611816565b81516113839060369060208501906114d9565b5080516111e79060379060208401906114d9565b600080516020611862833981519152816111e78282611417565b60655460ff16156111e75760405162461bcd60e51b815260206004820152602a60248201527f45524332305061757361626c653a20746f6b656e207472616e736665722077686044820152691a5b19481c185d5cd95960b21b606482015260840161099c565b60c954604051632474521560e21b8152600481018490526001600160a01b038381166024830152909116906391d148549060440160206040518083038186803b15801561146357600080fd5b505afa158015611477573d6000803e3d6000fd5b505050506040513d601f19601f8201168201806040525081019061149b91906117f4565b156106955760405162461bcd60e51b815260206004820152600e60248201526d574d41433a2068617320726f6c6560901b604482015260640161099c565b8280546114e590611793565b90600052602060002090601f016020900481019282611507576000855561154d565b82601f1061152057805160ff191683800117855561154d565b8280016001018555821561154d579182015b8281111561154d578251825591602001919060010190611532565b5061155992915061155d565b5090565b5b80821115611559576000815560010161155e565b6000815180845260005b818110156115985760208185018101518683018201520161157c565b818111156115aa576000602083870101525b50601f01601f19169290920160200192915050565b6020815260006115d26020830184611572565b9392505050565b80356001600160a01b03811681146115f057600080fd5b919050565b6000806040838503121561160857600080fd5b611611836115d9565b946020939093013593505050565b60008060006060848603121561163457600080fd5b61163d846115d9565b925061164b602085016115d9565b9150604084013590509250925092565b60006020828403121561166d57600080fd5b6115d2826115d9565b60006020828403121561168857600080fd5b5035919050565b634e487b7160e01b600052604160045260246000fd5b600080604083850312156116b857600080fd5b82359150602083013567ffffffffffffffff808211156116d757600080fd5b818501915085601f8301126116eb57600080fd5b8135818111156116fd576116fd61168f565b604051601f8201601f19908116603f011681019083821181831017156117255761172561168f565b8160405282815288602084870101111561173e57600080fd5b8260208601602083013760006020848301015280955050505050509250929050565b6000806040838503121561177357600080fd5b61177c836115d9565b915061178a602084016115d9565b90509250929050565b600181811c908216806117a757607f821691505b602082108114156117c857634e487b7160e01b600052602260045260246000fd5b50919050565b600082198211156117ef57634e487b7160e01b600052601160045260246000fd5b500190565b60006020828403121561180657600080fd5b815180151581146115d257600080fd5b6020808252602b908201527f496e697469616c697a61626c653a20636f6e7472616374206973206e6f74206960408201526a6e697469616c697a696e6760a81b60608201526080019056fe548c7f0307ab2a7ea894e5c7e8c5353cc750bb9385ee2e945f189a9a83daa8eda2646970667358221220451db2b5cc92eb83ddd10b7f98cda1210e5a78c8aa8c51c8ded3f17ef9bd2fb464736f6c63430008090033",
  "devdoc": {
    "kind": "dev",
    "methods": {
      "allowance(address,address)": {
        "details": "See {IERC20-allowance}."
      },
      "approve(address,uint256)": {
        "details": "See {IERC20-approve}. NOTE: If `amount` is the maximum `uint256`, the allowance is not updated on `transferFrom`. This is semantically equivalent to an infinite approval. Requirements: - `spender` cannot be the zero address."
      },
      "balanceOf(address)": {
        "details": "See {IERC20-balanceOf}."
      },
      "decimals()": {
        "details": "Returns the number of decimals used to get its user representation. For example, if `decimals` equals `2`, a balance of `505` tokens should be displayed to a user as `5.05` (`505 / 10 ** 2`). Tokens usually opt for a value of 18, imitating the relationship between Ether and Wei. This is the default value returned by this function, unless it's overridden. NOTE: This information is only used for _display_ purposes: it in no way affects any of the arithmetic of the contract, including {IERC20-balanceOf} and {IERC20-transfer}."
      },
      "decreaseAllowance(address,uint256)": {
        "details": "Atomically decreases the allowance granted to `spender` by the caller. This is an alternative to {approve} that can be used as a mitigation for problems described in {IERC20-approve}. Emits an {Approval} event indicating the updated allowance. Requirements: - `spender` cannot be the zero address. - `spender` must have allowance for the caller of at least `subtractedValue`."
      },
      "increaseAllowance(address,uint256)": {
        "details": "Atomically increases the allowance granted to `spender` by the caller. This is an alternative to {approve} that can be used as a mitigation for problems described in {IERC20-approve}. Emits an {Approval} event indicating the updated allowance. Requirements: - `spender` cannot be the zero address."
      },
      "name()": {
        "details": "Returns the name of the token."
      },
      "paused()": {
        "details": "Returns true if the contract is paused, and false otherwise."
      },
      "symbol()": {
        "details": "Returns the symbol of the token, usually a shorter version of the name."
      },
      "totalSupply()": {
        "details": "See {IERC20-totalSupply}."
      },
      "transfer(address,uint256)": {
        "details": "See {IERC20-transfer}. Requirements: - `to` cannot be the zero address. - the caller must have a balance of at least `amount`."
      },
      "transferFrom(address,address,uint256)": {
        "details": "See {IERC20-transferFrom}. Emits an {Approval} event indicating the updated allowance. This is not required by the EIP. See the note at the beginning of {ERC20}. NOTE: Does not update the allowance if the current allowance is the maximum `uint256`. Requirements: - `from` and `to` cannot be the zero address. - `from` must have a balance of at least `amount`. - the caller must have allowance for ``from``'s tokens of at least `amount`."
      }
    },
    "version": 1
  },
  "userdoc": {
    "kind": "user",
    "methods": {},
    "version": 1
  },
  "storageLayout": {
    "storage": [
      {
        "astId": 461,
        "contract": "contracts/mTBILL.sol:mTBILL",
        "label": "_initialized",
        "offset": 0,
        "slot": "0",
        "type": "t_uint8"
      },
      {
        "astId": 464,
        "contract": "contracts/mTBILL.sol:mTBILL",
        "label": "_initializing",
        "offset": 1,
        "slot": "0",
        "type": "t_bool"
      },
      {
        "astId": 2308,
        "contract": "contracts/mTBILL.sol:mTBILL",
        "label": "__gap",
        "offset": 0,
        "slot": "1",
        "type": "t_array(t_uint256)50_storage"
      },
      {
        "astId": 769,
        "contract": "contracts/mTBILL.sol:mTBILL",
        "label": "_balances",
        "offset": 0,
        "slot": "51",
        "type": "t_mapping(t_address,t_uint256)"
      },
      {
        "astId": 775,
        "contract": "contracts/mTBILL.sol:mTBILL",
        "label": "_allowances",
        "offset": 0,
        "slot": "52",
        "type": "t_mapping(t_address,t_mapping(t_address,t_uint256))"
      },
      {
        "astId": 777,
        "contract": "contracts/mTBILL.sol:mTBILL",
        "label": "_totalSupply",
        "offset": 0,
        "slot": "53",
        "type": "t_uint256"
      },
      {
        "astId": 779,
        "contract": "contracts/mTBILL.sol:mTBILL",
        "label": "_name",
        "offset": 0,
        "slot": "54",
        "type": "t_string_storage"
      },
      {
        "astId": 781,
        "contract": "contracts/mTBILL.sol:mTBILL",
        "label": "_symbol",
        "offset": 0,
        "slot": "55",
        "type": "t_string_storage"
      },
      {
        "astId": 1361,
        "contract": "contracts/mTBILL.sol:mTBILL",
        "label": "__gap",
        "offset": 0,
        "slot": "56",
        "type": "t_array(t_uint256)45_storage"
      },
      {
        "astId": 644,
        "contract": "contracts/mTBILL.sol:mTBILL",
        "label": "_paused",
        "offset": 0,
        "slot": "101",
        "type": "t_bool"
      },
      {
        "astId": 749,
        "contract": "contracts/mTBILL.sol:mTBILL",
        "label": "__gap",
        "offset": 0,
        "slot": "102",
        "type": "t_array(t_uint256)49_storage"
      },
      {
        "astId": 1499,
        "contract": "contracts/mTBILL.sol:mTBILL",
        "label": "__gap",
        "offset": 0,
        "slot": "151",
        "type": "t_array(t_uint256)50_storage"
      },
      {
        "astId": 6387,
        "contract": "contracts/mTBILL.sol:mTBILL",
        "label": "accessControl",
        "offset": 0,
        "slot": "201",
        "type": "t_contract(MidasAccessControl)6326"
      },
      {
        "astId": 7188,
        "contract": "contracts/mTBILL.sol:mTBILL",
        "label": "metadata",
        "offset": 0,
        "slot": "202",
        "type": "t_mapping(t_bytes32,t_bytes_storage)"
      },
      {
        "astId": 7192,
        "contract": "contracts/mTBILL.sol:mTBILL",
        "label": "__gap",
        "offset": 0,
        "slot": "203",
        "type": "t_array(t_uint256)50_storage"
      }
    ],
    "types": {
      "t_address": {
        "encoding": "inplace",
        "label": "address",
        "numberOfBytes": "20"
      },
      "t_array(t_uint256)45_storage": {
        "base": "t_uint256",
        "encoding": "inplace",
        "label": "uint256[45]",
        "numberOfBytes": "1440"
      },
      "t_array(t_uint256)49_storage": {
        "base": "t_uint256",
        "encoding": "inplace",
        "label": "uint256[49]",
        "numberOfBytes": "1568"
      },
      "t_array(t_uint256)50_storage": {
        "base": "t_uint256",
        "encoding": "inplace",
        "label": "uint256[50]",
        "numberOfBytes": "1600"
      },
      "t_bool": {
        "encoding": "inplace",
        "label": "bool",
        "numberOfBytes": "1"
      },
      "t_bytes32": {
        "encoding": "inplace",
        "label": "bytes32",
        "numberOfBytes": "32"
      },
      "t_bytes_storage": {
        "encoding": "bytes",
        "label": "bytes",
        "numberOfBytes": "32"
      },
      "t_contract(MidasAccessControl)6326": {
        "encoding": "inplace",
        "label": "contract MidasAccessControl",
        "numberOfBytes": "20"
      },
      "t_mapping(t_address,t_mapping(t_address,t_uint256))": {
        "encoding": "mapping",
        "key": "t_address",
        "label": "mapping(address => mapping(address => uint256))",
        "numberOfBytes": "32",
        "value": "t_mapping(t_address,t_uint256)"
      },
      "t_mapping(t_address,t_uint256)": {
        "encoding": "mapping",
        "key": "t_address",
        "label": "mapping(address => uint256)",
        "numberOfBytes": "32",
        "value": "t_uint256"
      },
      "t_mapping(t_bytes32,t_bytes_storage)": {
        "encoding": "mapping",
        "key": "t_bytes32",
        "label": "mapping(bytes32 => bytes)",
        "numberOfBytes": "32",
        "value": "t_bytes_storage"
      },
      "t_string_storage": {
        "encoding": "bytes",
        "label": "string",
        "numberOfBytes": "32"
      },
      "t_uint256": {
        "encoding": "inplace",
        "label": "uint256",
        "numberOfBytes": "32"
      },
      "t_uint8": {
        "encoding": "inplace",
        "label": "uint8",
        "numberOfBytes": "1"
      }
    }
  }
}